{
  "_format": "hh-sol-artifact-1",
  "contractName": "TheDAO",
  "sourceName": "contracts/TheDAO.sol",
  "abi": [
    {
      "inputs": [
        {
          "internalType": "address",
          "name": "",
          "type": "address"
        }
      ],
      "name": "balances",
      "outputs": [
        {
          "internalType": "uint256",
          "name": "",
          "type": "uint256"
        }
      ],
      "stateMutability": "view",
      "type": "function"
    },
    {
      "inputs": [],
      "name": "contribute",
      "outputs": [],
      "stateMutability": "payable",
      "type": "function"
    },
    {
      "inputs": [],
      "name": "getBalance",
      "outputs": [
        {
          "internalType": "uint256",
          "name": "",
          "type": "uint256"
        }
      ],
      "stateMutability": "view",
      "type": "function"
    },
    {
      "inputs": [
        {
          "internalType": "uint256",
          "name": "amount",
          "type": "uint256"
        }
      ],
      "name": "withdraw",
      "outputs": [],
      "stateMutability": "nonpayable",
      "type": "function"
    }
  ],
  "bytecode": "0x608060405234801561001057600080fd5b506105b8806100206000396000f3fe60806040526004361061003f5760003560e01c806312065fe01461004457806327e235e31461006f5780632e1a7d4d146100ac578063d7bb99ba146100d5575b600080fd5b34801561005057600080fd5b506100596100df565b60405161006691906102ec565b60405180910390f35b34801561007b57600080fd5b506100966004803603810190610091919061036a565b6100e7565b6040516100a391906102ec565b60405180910390f35b3480156100b857600080fd5b506100d360048036038101906100ce91906103c3565b6100ff565b005b6100dd61027c565b005b600047905090565b60006020528060005260406000206000915090505481565b806000803373ffffffffffffffffffffffffffffffffffffffff1673ffffffffffffffffffffffffffffffffffffffff168152602001908152602001600020541015610180576040517f08c379a00000000000000000000000000000000000000000000000000000000081526004016101779061044d565b60405180910390fd5b60003373ffffffffffffffffffffffffffffffffffffffff16826040516101a69061049e565b60006040518083038185875af1925050503d80600081146101e3576040519150601f19603f3d011682016040523d82523d6000602084013e6101e8565b606091505b505090508061022c576040517f08c379a0000000000000000000000000000000000000000000000000000000008152600401610223906104ff565b60405180910390fd5b816000803373ffffffffffffffffffffffffffffffffffffffff1673ffffffffffffffffffffffffffffffffffffffff168152602001908152602001600020600082825403925050819055505050565b346000803373ffffffffffffffffffffffffffffffffffffffff1673ffffffffffffffffffffffffffffffffffffffff16815260200190815260200160002060008282546102ca919061054e565b92505081905550565b6000819050919050565b6102e6816102d3565b82525050565b600060208201905061030160008301846102dd565b92915050565b600080fd5b600073ffffffffffffffffffffffffffffffffffffffff82169050919050565b60006103378261030c565b9050919050565b6103478161032c565b811461035257600080fd5b50565b6000813590506103648161033e565b92915050565b6000602082840312156103805761037f610307565b5b600061038e84828501610355565b91505092915050565b6103a0816102d3565b81146103ab57600080fd5b50565b6000813590506103bd81610397565b92915050565b6000602082840312156103d9576103d8610307565b5b60006103e7848285016103ae565b91505092915050565b600082825260208201905092915050565b7f496e73756666696369656e742066756e64730000000000000000000000000000600082015250565b60006104376012836103f0565b915061044282610401565b602082019050919050565b600060208201905081810360008301526104668161042a565b9050919050565b600081905092915050565b50565b600061048860008361046d565b915061049382610478565b600082019050919050565b60006104a98261047b565b9150819050919050565b7f5472616e73666572206661696c65640000000000000000000000000000000000600082015250565b60006104e9600f836103f0565b91506104f4826104b3565b602082019050919050565b60006020820190508181036000830152610518816104dc565b9050919050565b7f4e487b7100000000000000000000000000000000000000000000000000000000600052601160045260246000fd5b6000610559826102d3565b9150610564836102d3565b925082820190508082111561057c5761057b61051f565b5b9291505056fea264697066735822122010b04e06248270aa98de1547b1a1536937d9033f95b594207d7ae2c6c733bbc464736f6c63430008140033",
  "linkReferences": {},
  "deployedLinkReferences": {}
}